{
  "address": "0x1FD21881ce1047253e82576080E2A46976F5816F",
  "abi": [
    {
      "inputs": [
        {
          "internalType": "address",
          "name": "exampleExternalContractAddress",
          "type": "address"
        }
      ],
      "stateMutability": "nonpayable",
      "type": "constructor"
    },
    {
      "anonymous": false,
      "inputs": [
        {
          "indexed": true,
          "internalType": "address",
          "name": "staker",
          "type": "address"
        },
        {
          "indexed": false,
          "internalType": "uint256",
          "name": "amount",
          "type": "uint256"
        }
      ],
      "name": "Stake",
      "type": "event"
    },
    {
      "stateMutability": "payable",
      "type": "fallback"
    },
    {
      "inputs": [
        {
          "internalType": "address",
          "name": "",
          "type": "address"
        }
      ],
      "name": "balances",
      "outputs": [
        {
          "internalType": "uint256",
          "name": "",
          "type": "uint256"
        }
      ],
      "stateMutability": "view",
      "type": "function"
    },
    {
      "inputs": [],
      "name": "deadline",
      "outputs": [
        {
          "internalType": "uint256",
          "name": "",
          "type": "uint256"
        }
      ],
      "stateMutability": "view",
      "type": "function"
    },
    {
      "inputs": [],
      "name": "exampleExternalContract",
      "outputs": [
        {
          "internalType": "contract ExampleExternalContract",
          "name": "",
          "type": "address"
        }
      ],
      "stateMutability": "view",
      "type": "function"
    },
    {
      "inputs": [],
      "name": "execute",
      "outputs": [],
      "stateMutability": "nonpayable",
      "type": "function"
    },
    {
      "inputs": [],
      "name": "openForWithdrawal",
      "outputs": [
        {
          "internalType": "bool",
          "name": "",
          "type": "bool"
        }
      ],
      "stateMutability": "view",
      "type": "function"
    },
    {
      "inputs": [],
      "name": "restartStacking",
      "outputs": [],
      "stateMutability": "nonpayable",
      "type": "function"
    },
    {
      "inputs": [],
      "name": "stake",
      "outputs": [],
      "stateMutability": "payable",
      "type": "function"
    },
    {
      "inputs": [],
      "name": "threshold",
      "outputs": [
        {
          "internalType": "uint256",
          "name": "",
          "type": "uint256"
        }
      ],
      "stateMutability": "view",
      "type": "function"
    },
    {
      "inputs": [],
      "name": "timeLeft",
      "outputs": [
        {
          "internalType": "uint256",
          "name": "",
          "type": "uint256"
        }
      ],
      "stateMutability": "view",
      "type": "function"
    },
    {
      "inputs": [],
      "name": "withdraw",
      "outputs": [],
      "stateMutability": "nonpayable",
      "type": "function"
    },
    {
      "stateMutability": "payable",
      "type": "receive"
    }
  ],
  "transactionHash": "0xa894515d1141e6df837628b7222aa2cfd06370aa280c44a22bef337827d587b4",
  "args": [
    "0xA63F5d8eBB739038Fd1d01bf1C094c6b91e96778"
  ],
  "numDeployments": 3,
  "solcInputHash": "d75717c352f66831c7c2180cadeb4b74",
  "bytecode": "0x6080604052610011426203f48061006e565b6003556004805460ff1916905534801561002a57600080fd5b50604051610a53380380610a5383398101604081905261004991610095565b600080546001600160a01b0319166001600160a01b03929092169190911790556100c5565b8082018082111561008f57634e487b7160e01b600052601160045260246000fd5b92915050565b6000602082840312156100a757600080fd5b81516001600160a01b03811681146100be57600080fd5b9392505050565b61097f806100d46000396000f3fe6080604052600436106100955760003560e01c806342cde4e81161005957806342cde4e81461012c57806361461954146101485780639f75f2271461015d578063a4778fde14610195578063acc1ce40146101bf576100a4565b80631300a6d1146100ac57806327e235e3146100d457806329dcb0cf146101015780633a4b66f1146100a45780633ccfd60b14610117576100a4565b366100a4576100a26101d4565b005b6100a26101d4565b3480156100b857600080fd5b506100c1610318565b6040519081526020015b60405180910390f35b3480156100e057600080fd5b506100c16100ef366004610868565b60016020526000908152604090205481565b34801561010d57600080fd5b506100c160035481565b34801561012357600080fd5b506100a261033c565b34801561013857600080fd5b506100c1670de0b6b3a764000081565b34801561015457600080fd5b506100a2610565565b34801561016957600080fd5b5060005461017d906001600160a01b031681565b6040516001600160a01b0390911681526020016100cb565b3480156101a157600080fd5b506004546101af9060ff1681565b60405190151581526020016100cb565b3480156101cb57600080fd5b506100a26106cf565b600354421061022a5760405162461bcd60e51b815260206004820152601b60248201527f446561646c696e652069732070617373656420746f207374616b65000000000060448201526064015b60405180910390fd5b6000341161027a5760405162461bcd60e51b815260206004820152601d60248201527f4d7573742073656e6420736f6d6520657468657220746f207374616b650000006044820152606401610221565b33600090815260016020526040812080543492906102999084906108ae565b9091555050600280546001810182556000919091527f405787fa12a823e0f2b7631cc41b3ba8828b3321ca811111fa75cd3aa3bb5ace0180546001600160a01b031916339081179091556040513481527febedb8b3c678666e7f36970bc8f57abf6d8fa2e828c0da91ea5b75bf68ed101a9060200160405180910390a2565b600060035442106103295750600090565b4260035461033791906108c7565b905090565b60035442101561035e5760405162461bcd60e51b8152600401610221906108da565b670de0b6b3a764000047106103c75760405162461bcd60e51b815260206004820152602960248201527f43616e2774207769746864726177206966207374616b696e672074687265736f6044820152686c64206d657420212160b81b6064820152608401610221565b60045460ff1661042a5760405162461bcd60e51b815260206004820152602860248201527f57697468647277616c206e6f74206f70656e207965742c206578656375746520604482015267666972737420212160c01b6064820152608401610221565b3360008181526001602052604090205490816104a55760405162461bcd60e51b815260206004820152603460248201527f45697468657220796f75206e6f74207374616b6564206f7220616c7265616479604482015273081dda5d1a191c9dd85b081e5bdd5c88199d5b9960621b6064820152608401610221565b6001600160a01b0381166000818152600160205260408082208290555190919084908381818185875af1925050503d80600081146104ff576040519150601f19603f3d011682016040523d82523d6000602084013e610504565b606091505b50509050806105605760405162461bcd60e51b815260206004820152602260248201527f57697468647277616c206661696c65642c20706c65617365207472792061676160448201526134b760f11b6064820152608401610221565b505050565b6003544210156105875760405162461bcd60e51b8152600401610221906108da565b60008054906101000a90046001600160a01b03166001600160a01b0316639d9a7fe96040518163ffffffff1660e01b8152600401602060405180830381865afa1580156105d8573d6000803e3d6000fd5b505050506040513d601f19601f820116820180604052508101906105fc9190610911565b156106495760405162461bcd60e51b815260206004820152601e60248201527f5374616b6520636f6d706c657465642c20547279206e6578742074696d6500006044820152606401610221565b670de0b6b3a764000047106106c05760008054906101000a90046001600160a01b03166001600160a01b031663522e1177476040518263ffffffff1660e01b81526004016000604051808303818588803b1580156106a657600080fd5b505af11580156106ba573d6000803e3d6000fd5b50505050505b6004805460ff19166001179055565b6003544210156106f15760405162461bcd60e51b8152600401610221906108da565b47156107585760405162461bcd60e51b815260206004820152603060248201527f4578697374696e672066756e642073686f756c6420626520776974686472776160448201526f1b881899599bdc99481c995cdd185c9d60821b6064820152608401610221565b610765426203f4806108ae565b6003556004805460ff1916905560005b6002548110156107c65760006002828154811061079457610794610933565b60009182526020808320909101546001600160a01b031682526001908190526040822091909155919091019050610775565b506107d36002600061082e565b600080546040805163d826f88f60e01b815290516001600160a01b039092169263d826f88f9260048084019382900301818387803b15801561081457600080fd5b505af1158015610828573d6000803e3d6000fd5b50505050565b508054600082559060005260206000209081019061084c919061084f565b50565b5b808211156108645760008155600101610850565b5090565b60006020828403121561087a57600080fd5b81356001600160a01b038116811461089157600080fd5b9392505050565b634e487b7160e01b600052601160045260246000fd5b808201808211156108c1576108c1610898565b92915050565b818103818111156108c1576108c1610898565b6020808252601a908201527f446561646c696e65206973206e6f742070617373656420796574000000000000604082015260600190565b60006020828403121561092357600080fd5b8151801515811461089157600080fd5b634e487b7160e01b600052603260045260246000fdfea2646970667358221220cae8d347c05dd1c3b0907fd5a635fe9e2ae3e752dc463dcbb86a943eb9b4b45364736f6c63430008140033",
  "devdoc": {
    "kind": "dev",
    "methods": {},
    "version": 1
  },
  "userdoc": {
    "kind": "user",
    "methods": {},
    "version": 1
  },
  "storageLayout": {
    "storage": [
      {
        "astId": 27,
        "contract": "contracts/Staker.sol:Staker",
        "label": "exampleExternalContract",
        "offset": 0,
        "slot": "0",
        "type": "t_contract(ExampleExternalContract)20"
      },
      {
        "astId": 31,
        "contract": "contracts/Staker.sol:Staker",
        "label": "balances",
        "offset": 0,
        "slot": "1",
        "type": "t_mapping(t_address,t_uint256)"
      },
      {
        "astId": 34,
        "contract": "contracts/Staker.sol:Staker",
        "label": "stakers",
        "offset": 0,
        "slot": "2",
        "type": "t_array(t_address)dyn_storage"
      },
      {
        "astId": 40,
        "contract": "contracts/Staker.sol:Staker",
        "label": "deadline",
        "offset": 0,
        "slot": "3",
        "type": "t_uint256"
      },
      {
        "astId": 46,
        "contract": "contracts/Staker.sol:Staker",
        "label": "openForWithdrawal",
        "offset": 0,
        "slot": "4",
        "type": "t_bool"
      }
    ],
    "types": {
      "t_address": {
        "encoding": "inplace",
        "label": "address",
        "numberOfBytes": "20"
      },
      "t_array(t_address)dyn_storage": {
        "base": "t_address",
        "encoding": "dynamic_array",
        "label": "address[]",
        "numberOfBytes": "32"
      },
      "t_bool": {
        "encoding": "inplace",
        "label": "bool",
        "numberOfBytes": "1"
      },
      "t_contract(ExampleExternalContract)20": {
        "encoding": "inplace",
        "label": "contract ExampleExternalContract",
        "numberOfBytes": "20"
      },
      "t_mapping(t_address,t_uint256)": {
        "encoding": "mapping",
        "key": "t_address",
        "label": "mapping(address => uint256)",
        "numberOfBytes": "32",
        "value": "t_uint256"
      },
      "t_uint256": {
        "encoding": "inplace",
        "label": "uint256",
        "numberOfBytes": "32"
      }
    }
  }
}